{
  "_format": "hh-sol-artifact-1",
  "contractName": "DrandOracle",
  "sourceName": "contracts/DrandOracle.sol",
  "abi": [
    {
      "anonymous": false,
      "inputs": [
        {
          "indexed": true,
          "internalType": "uint256",
          "name": "T",
          "type": "uint256"
        },
        {
          "indexed": false,
          "internalType": "bytes32",
          "name": "randomness",
          "type": "bytes32"
        }
      ],
      "name": "DrandUpdated",
      "type": "event"
    },
    {
      "inputs": [
        {
          "internalType": "uint256",
          "name": "",
          "type": "uint256"
        }
      ],
      "name": "drandEntries",
      "outputs": [
        {
          "internalType": "bytes32",
          "name": "randomness",
          "type": "bytes32"
        },
        {
          "internalType": "uint256",
          "name": "timestamp",
          "type": "uint256"
        },
        {
          "internalType": "bool",
          "name": "filled",
          "type": "bool"
        }
      ],
      "stateMutability": "view",
      "type": "function"
    },
    {
      "inputs": [
        {
          "internalType": "uint256",
          "name": "T",
          "type": "uint256"
        }
      ],
      "name": "getDrand",
      "outputs": [
        {
          "internalType": "bytes32",
          "name": "",
          "type": "bytes32"
        }
      ],
      "stateMutability": "view",
      "type": "function"
    },
    {
      "inputs": [
        {
          "internalType": "uint256",
          "name": "T",
          "type": "uint256"
        }
      ],
      "name": "hasUpdatePeriodExpired",
      "outputs": [
        {
          "internalType": "bool",
          "name": "",
          "type": "bool"
        }
      ],
      "stateMutability": "view",
      "type": "function"
    },
    {
      "inputs": [
        {
          "internalType": "uint256",
          "name": "T",
          "type": "uint256"
        }
      ],
      "name": "isDrandAvailable",
      "outputs": [
        {
          "internalType": "bool",
          "name": "",
          "type": "bool"
        }
      ],
      "stateMutability": "view",
      "type": "function"
    },
    {
      "inputs": [
        {
          "internalType": "uint256",
          "name": "T",
          "type": "uint256"
        },
        {
          "internalType": "bytes32",
          "name": "randomness",
          "type": "bytes32"
        }
      ],
      "name": "postDrandRandomness",
      "outputs": [],
      "stateMutability": "nonpayable",
      "type": "function"
    }
  ],
  "bytecode": "0x608060405234801561001057600080fd5b506106bf806100206000396000f3fe608060405234801561001057600080fd5b50600436106100575760003560e01c8063079ea2ed1461005c5780631482882a1461008c57806374dc0fc3146100a857806375a54743146100d8578063e0d81de01461010a575b600080fd5b61007660048036038101906100719190610388565b61013a565b60405161008391906103d0565b60405180910390f35b6100a660048036038101906100a19190610421565b610166565b005b6100c260048036038101906100bd9190610388565b610289565b6040516100cf9190610470565b60405180910390f35b6100f260048036038101906100ed9190610388565b6102fe565b6040516101019392919061049a565b60405180910390f35b610124600480360381019061011f9190610388565b610335565b60405161013191906103d0565b60405180910390f35b600080600083815260200190815260200160002060020160009054906101000a900460ff169050919050565b600a826101739190610500565b4211156101b5576040517f08c379a00000000000000000000000000000000000000000000000000000000081526004016101ac90610591565b60405180910390fd5b600080600084815260200190815260200160002090508060020160009054906101000a900460ff161561021d576040517f08c379a0000000000000000000000000000000000000000000000000000000008152600401610214906105fd565b60405180910390fd5b81816000018190555042816001018190555060018160020160006101000a81548160ff021916908315150217905550827f08fcfa9d5e57e534cb91c0d2628efd4da84db6c55fc26fca7b5fa7aca41020338360405161027c9190610470565b60405180910390a2505050565b60008060008084815260200190815260200160002090508060020160009054906101000a900460ff166102f1576040517f08c379a00000000000000000000000000000000000000000000000000000000081526004016102e890610669565b60405180910390fd5b8060000154915050919050565b60006020528060005260406000206000915090508060000154908060010154908060020160009054906101000a900460ff16905083565b6000600a826103449190610500565b42119050919050565b600080fd5b6000819050919050565b61036581610352565b811461037057600080fd5b50565b6000813590506103828161035c565b92915050565b60006020828403121561039e5761039d61034d565b5b60006103ac84828501610373565b91505092915050565b60008115159050919050565b6103ca816103b5565b82525050565b60006020820190506103e560008301846103c1565b92915050565b6000819050919050565b6103fe816103eb565b811461040957600080fd5b50565b60008135905061041b816103f5565b92915050565b600080604083850312156104385761043761034d565b5b600061044685828601610373565b92505060206104578582860161040c565b9150509250929050565b61046a816103eb565b82525050565b60006020820190506104856000830184610461565b92915050565b61049481610352565b82525050565b60006060820190506104af6000830186610461565b6104bc602083018561048b565b6104c960408301846103c1565b949350505050565b7f4e487b7100000000000000000000000000000000000000000000000000000000600052601160045260246000fd5b600061050b82610352565b915061051683610352565b925082820190508082111561052e5761052d6104d1565b5b92915050565b600082825260208201905092915050565b7f55706461746520706572696f6420686173206578706972656400000000000000600082015250565b600061057b601983610534565b915061058682610545565b602082019050919050565b600060208201905081810360008301526105aa8161056e565b9050919050565b7f4472616e6420656e74727920616c72656164792066696c6c6564000000000000600082015250565b60006105e7601a83610534565b91506105f2826105b1565b602082019050919050565b60006020820190508181036000830152610616816105da565b9050919050565b7f4472616e6420656e747279206e6f7420617661696c61626c6500000000000000600082015250565b6000610653601983610534565b915061065e8261061d565b602082019050919050565b6000602082019050818103600083015261068281610646565b905091905056fea2646970667358221220e7d26173b746b1ea494b7eafe3a82c67fd619370e1ff4d60b48683f712b8df1364736f6c63430008180033",
  "linkReferences": {},
  "deployedLinkReferences": {}
}