{
  "_format": "hh-sol-artifact-1",
  "contractName": "RandomnessOracle",
  "sourceName": "contracts/RandomnessOracle.sol",
  "abi": [
    {
      "inputs": [
        {
          "internalType": "address",
          "name": "_drandOracle",
          "type": "address"
        },
        {
          "internalType": "address",
          "name": "_sequencerRandomOracle",
          "type": "address"
        }
      ],
      "stateMutability": "nonpayable",
      "type": "constructor"
    },
    {
      "inputs": [
        {
          "internalType": "uint256",
          "name": "T",
          "type": "uint256"
        }
      ],
      "name": "computeRandomness",
      "outputs": [
        {
          "internalType": "bytes32",
          "name": "",
          "type": "bytes32"
        }
      ],
      "stateMutability": "view",
      "type": "function"
    },
    {
      "inputs": [],
      "name": "drandOracle",
      "outputs": [
        {
          "internalType": "contract DrandOracle",
          "name": "",
          "type": "address"
        }
      ],
      "stateMutability": "view",
      "type": "function"
    },
    {
      "inputs": [
        {
          "internalType": "uint256",
          "name": "T",
          "type": "uint256"
        }
      ],
      "name": "isRandomnessEverAvailable",
      "outputs": [
        {
          "internalType": "bool",
          "name": "",
          "type": "bool"
        }
      ],
      "stateMutability": "view",
      "type": "function"
    },
    {
      "inputs": [],
      "name": "sequencerRandomOracle",
      "outputs": [
        {
          "internalType": "contract SequencerRandomOracle",
          "name": "",
          "type": "address"
        }
      ],
      "stateMutability": "view",
      "type": "function"
    },
    {
      "inputs": [
        {
          "internalType": "uint256",
          "name": "T",
          "type": "uint256"
        }
      ],
      "name": "simpleGetRandomness",
      "outputs": [
        {
          "internalType": "bytes32",
          "name": "",
          "type": "bytes32"
        }
      ],
      "stateMutability": "view",
      "type": "function"
    },
    {
      "inputs": [
        {
          "internalType": "uint256",
          "name": "T",
          "type": "uint256"
        }
      ],
      "name": "unsafeGetRandomness",
      "outputs": [
        {
          "internalType": "bytes32",
          "name": "",
          "type": "bytes32"
        }
      ],
      "stateMutability": "view",
      "type": "function"
    }
  ],
  "bytecode": "0x608060405234801561001057600080fd5b50604051610acb380380610acb8339818101604052810190610032919061011d565b816000806101000a81548173ffffffffffffffffffffffffffffffffffffffff021916908373ffffffffffffffffffffffffffffffffffffffff16021790555080600160006101000a81548173ffffffffffffffffffffffffffffffffffffffff021916908373ffffffffffffffffffffffffffffffffffffffff160217905550505061015d565b600080fd5b600073ffffffffffffffffffffffffffffffffffffffff82169050919050565b60006100ea826100bf565b9050919050565b6100fa816100df565b811461010557600080fd5b50565b600081519050610117816100f1565b92915050565b60008060408385031215610134576101336100ba565b5b600061014285828601610108565b925050602061015385828601610108565b9150509250929050565b61095f8061016c6000396000f3fe608060405234801561001057600080fd5b50600436106100625760003560e01c8063060552691461006757806309c21de014610097578063af2556b5146100b5578063b2b372b1146100e5578063c55c426214610115578063ea6ae42a14610133575b600080fd5b610081600480360381019061007c9190610616565b610163565b60405161008e919061065e565b60405180910390f35b61009f610373565b6040516100ac91906106f8565b60405180910390f35b6100cf60048036038101906100ca9190610616565b610397565b6040516100dc919061072c565b60405180910390f35b6100ff60048036038101906100fa9190610616565b6103f3565b60405161010c919061072c565b60405180910390f35b61011d6105a3565b60405161012a9190610768565b60405180910390f35b61014d60048036038101906101489190610616565b6105c9565b60405161015a919061072c565b60405180910390f35b60008060008060009054906101000a900473ffffffffffffffffffffffffffffffffffffffff1673ffffffffffffffffffffffffffffffffffffffff1663079ea2ed856040518263ffffffff1660e01b81526004016101c29190610792565b602060405180830381865afa9250505080156101fc57506040513d601f19601f820116820180604052508101906101f991906107d9565b60015b610209576000915061020e565b809250505b60008054906101000a900473ffffffffffffffffffffffffffffffffffffffff1673ffffffffffffffffffffffffffffffffffffffff1663e0d81de0856040518263ffffffff1660e01b81526004016102679190610792565b602060405180830381865afa9250505080156102a157506040513d601f19601f8201168201806040525081019061029e91906107d9565b60015b156102b35782806102af5750805b9250505b600160009054906101000a900473ffffffffffffffffffffffffffffffffffffffff1673ffffffffffffffffffffffffffffffffffffffff1663700dcc1a856040518263ffffffff1660e01b815260040161030e9190610792565b602060405180830381865afa92505050801561034857506040513d601f19601f820116820180604052508101906103459190610832565b60015b6103555760009050610360565b6000801b8114159150505b81801561036a5750805b92505050919050565b60008054906101000a900473ffffffffffffffffffffffffffffffffffffffff1681565b6000806103a3836103f3565b90506000801b81036103ea576040517f08c379a00000000000000000000000000000000000000000000000000000000081526004016103e1906108bc565b60405180910390fd5b80915050919050565b60008060008060009054906101000a900473ffffffffffffffffffffffffffffffffffffffff1673ffffffffffffffffffffffffffffffffffffffff166374dc0fc3856040518263ffffffff1660e01b81526004016104529190610792565b602060405180830381865afa92505050801561048c57506040513d601f19601f820116820180604052508101906104899190610832565b60015b61049d576000801b9250505061059e565b80925050600160009054906101000a900473ffffffffffffffffffffffffffffffffffffffff1673ffffffffffffffffffffffffffffffffffffffff1663700dcc1a856040518263ffffffff1660e01b81526004016104fc9190610792565b602060405180830381865afa92505050801561053657506040513d601f19601f820116820180604052508101906105339190610832565b60015b610547576000801b9250505061059e565b809150506000801b82148061055e57506000801b81145b15610570576000801b9250505061059e565b81816040516020016105839291906108fd565b60405160208183030381529060405280519060200120925050505b919050565b600160009054906101000a900473ffffffffffffffffffffffffffffffffffffffff1681565b60006105d4826103f3565b9050919050565b600080fd5b6000819050919050565b6105f3816105e0565b81146105fe57600080fd5b50565b600081359050610610816105ea565b92915050565b60006020828403121561062c5761062b6105db565b5b600061063a84828501610601565b91505092915050565b60008115159050919050565b61065881610643565b82525050565b6000602082019050610673600083018461064f565b92915050565b600073ffffffffffffffffffffffffffffffffffffffff82169050919050565b6000819050919050565b60006106be6106b96106b484610679565b610699565b610679565b9050919050565b60006106d0826106a3565b9050919050565b60006106e2826106c5565b9050919050565b6106f2816106d7565b82525050565b600060208201905061070d60008301846106e9565b92915050565b6000819050919050565b61072681610713565b82525050565b6000602082019050610741600083018461071d565b92915050565b6000610752826106c5565b9050919050565b61076281610747565b82525050565b600060208201905061077d6000830184610759565b92915050565b61078c816105e0565b82525050565b60006020820190506107a76000830184610783565b92915050565b6107b681610643565b81146107c157600080fd5b50565b6000815190506107d3816107ad565b92915050565b6000602082840312156107ef576107ee6105db565b5b60006107fd848285016107c4565b91505092915050565b61080f81610713565b811461081a57600080fd5b50565b60008151905061082c81610806565b92915050565b600060208284031215610848576108476105db565b5b60006108568482850161081d565b91505092915050565b600082825260208201905092915050565b7f52616e646f6d6e657373206973206e6f7420617661696c61626c650000000000600082015250565b60006108a6601b8361085f565b91506108b182610870565b602082019050919050565b600060208201905081810360008301526108d581610899565b9050919050565b6000819050919050565b6108f76108f282610713565b6108dc565b82525050565b600061090982856108e6565b60208201915061091982846108e6565b602082019150819050939250505056fea2646970667358221220a4dc3887a3159ccaadb8517520080f96125bec83b6a52e7ae2f51fcf055aaa1164736f6c63430008180033",
  "linkReferences": {},
  "deployedLinkReferences": {}
}