{"contracts/SequencerRandomOracle.sol":{"SequencerRandomOracle":{"abi":[{"inputs":[{"internalType":"bytes32","name":"expected","type":"bytes32"},{"internalType":"bytes32","name":"actual","type":"bytes32"}],"name":"InvalidRandomnessReveal","type":"error"},{"inputs":[],"name":"PrecommitDelayNotPassed","type":"error"},{"inputs":[],"name":"SequencerEntryAlreadyCommitted","type":"error"},{"inputs":[],"name":"SequencerRandomnessAlreadyRevealed","type":"error"},{"inputs":[],"name":"SequencerRandomnessNotCommitted","type":"error"},{"anonymous":false,"inputs":[{"indexed":true,"internalType":"uint256","name":"T","type":"uint256"},{"indexed":false,"internalType":"bytes32","name":"randomnessHash","type":"bytes32"}],"name":"SequencerRandomnessPosted","type":"event"},{"anonymous":false,"inputs":[{"indexed":true,"internalType":"uint256","name":"T","type":"uint256"},{"indexed":false,"internalType":"bytes32","name":"randomness","type":"bytes32"}],"name":"SequencerRandomnessRevealed","type":"event"},{"inputs":[{"internalType":"uint256","name":"T","type":"uint256"}],"name":"getSequencerRandomness","outputs":[{"internalType":"bytes32","name":"","type":"bytes32"}],"stateMutability":"view","type":"function"},{"inputs":[{"internalType":"uint256","name":"T","type":"uint256"},{"internalType":"bytes32","name":"randomnessHash","type":"bytes32"}],"name":"postRandomnessCommitment","outputs":[],"stateMutability":"nonpayable","type":"function"},{"inputs":[{"internalType":"uint256","name":"T","type":"uint256"},{"internalType":"bytes32","name":"randomness","type":"bytes32"}],"name":"revealSequencerRandomness","outputs":[],"stateMutability":"nonpayable","type":"function"},{"inputs":[{"internalType":"uint256","name":"","type":"uint256"}],"name":"sequencerEntries","outputs":[{"internalType":"bytes32","name":"randomnessHash","type":"bytes32"},{"internalType":"bytes32","name":"randomness","type":"bytes32"},{"internalType":"uint256","name":"blockNumber","type":"uint256"},{"internalType":"bool","name":"committed","type":"bool"},{"internalType":"bool","name":"revealed","type":"bool"}],"stateMutability":"view","type":"function"}],"evm":{"bytecode":{"linkReferences":{},"object":"608060405234801561001057600080fd5b5061078b806100206000396000f3fe608060405234801561001057600080fd5b506004361061004c5760003560e01c806347bdda4814610051578063700dcc1a1461006d57806390095e9d1461009d578063d055bd04146100b9575b600080fd5b61006b600480360381019061006691906104d6565b6100ed565b005b61008760048036038101906100829190610516565b6101d3565b6040516100949190610552565b60405180910390f35b6100b760048036038101906100b291906104d6565b610248565b005b6100d360048036038101906100ce9190610516565b610415565b6040516100e4959493929190610597565b60405180910390f35b600080600084815260200190815260200160002090508060030160009054906101000a900460ff161561014a576040517d249500000000000000000000000000000000000000000000000000000000815260040160405180910390fd5b81816000018190555043816002018190555060018160030160006101000a81548160ff02191690831515021790555060008160030160016101000a81548160ff021916908315150217905550827f7ee26e0e713ba7f9bd111f62267c6cac5984732e39b5a0350ddb50934dd18775836040516101c69190610552565b60405180910390a2505050565b60008060008084815260200190815260200160002090508060030160019054906101000a900460ff1661023b576040517f08c379a00000000000000000000000000000000000000000000000000000000081526004016102329061066d565b60405180910390fd5b8060010154915050919050565b600080600084815260200190815260200160002090508060030160009054906101000a900460ff166102a6576040517f5f960e8400000000000000000000000000000000000000000000000000000000815260040160405180910390fd5b600a81600201546102b791906106bc565b43116102ef576040517f7702a14100000000000000000000000000000000000000000000000000000000815260040160405180910390fd5b8060030160019054906101000a900460ff1615610338576040517fb3a77af900000000000000000000000000000000000000000000000000000000815260040160405180910390fd5b60008260405160200161034b9190610711565b604051602081830303815290604052805190602001209050808260000154146103b1578160000154816040517f0267bee80000000000000000000000000000000000000000000000000000000081526004016103a892919061072c565b60405180910390fd5b82826001018190555060018260030160016101000a81548160ff021916908315150217905550837ffaa891f32720f5e38fa109ba0262096d6555306fd75a9f6f0914d9f47b75128c846040516104079190610552565b60405180910390a250505050565b60006020528060005260406000206000915090508060000154908060010154908060020154908060030160009054906101000a900460ff16908060030160019054906101000a900460ff16905085565b600080fd5b6000819050919050565b61047d8161046a565b811461048857600080fd5b50565b60008135905061049a81610474565b92915050565b6000819050919050565b6104b3816104a0565b81146104be57600080fd5b50565b6000813590506104d0816104aa565b92915050565b600080604083850312156104ed576104ec610465565b5b60006104fb8582860161048b565b925050602061050c858286016104c1565b9150509250929050565b60006020828403121561052c5761052b610465565b5b600061053a8482850161048b565b91505092915050565b61054c816104a0565b82525050565b60006020820190506105676000830184610543565b92915050565b6105768161046a565b82525050565b60008115159050919050565b6105918161057c565b82525050565b600060a0820190506105ac6000830188610543565b6105b96020830187610543565b6105c6604083018661056d565b6105d36060830185610588565b6105e06080830184610588565b9695505050505050565b600082825260208201905092915050565b7f53657175656e6365722072616e646f6d6e657373206e6f7420617661696c616260008201527f6c65000000000000000000000000000000000000000000000000000000000000602082015250565b60006106576022836105ea565b9150610662826105fb565b604082019050919050565b600060208201905081810360008301526106868161064a565b9050919050565b7f4e487b7100000000000000000000000000000000000000000000000000000000600052601160045260246000fd5b60006106c78261046a565b91506106d28361046a565b92508282019050808211156106ea576106e961068d565b5b92915050565b6000819050919050565b61070b610706826104a0565b6106f0565b82525050565b600061071d82846106fa565b60208201915081905092915050565b60006040820190506107416000830185610543565b61074e6020830184610543565b939250505056fea2646970667358221220f5797d04aa547703a933c2370017884ca4838d35ab2f261bfa9d58489906317d64736f6c63430008180033","opcodes":"PUSH1 0x80 PUSH1 0x40 MSTORE CALLVALUE DUP1 ISZERO PUSH2 0x10 JUMPI PUSH1 0x0 DUP1 REVERT JUMPDEST POP PUSH2 0x78B DUP1 PUSH2 0x20 PUSH1 0x0 CODECOPY PUSH1 0x0 RETURN INVALID PUSH1 0x80 PUSH1 0x40 MSTORE CALLVALUE DUP1 ISZERO PUSH2 0x10 JUMPI PUSH1 0x0 DUP1 REVERT JUMPDEST POP PUSH1 0x4 CALLDATASIZE LT PUSH2 0x4C JUMPI PUSH1 0x0 CALLDATALOAD PUSH1 0xE0 SHR DUP1 PUSH4 0x47BDDA48 EQ PUSH2 0x51 JUMPI DUP1 PUSH4 0x700DCC1A EQ PUSH2 0x6D JUMPI DUP1 PUSH4 0x90095E9D EQ PUSH2 0x9D JUMPI DUP1 PUSH4 0xD055BD04 EQ PUSH2 0xB9 JUMPI JUMPDEST PUSH1 0x0 DUP1 REVERT JUMPDEST PUSH2 0x6B PUSH1 0x4 DUP1 CALLDATASIZE SUB DUP2 ADD SWAP1 PUSH2 0x66 SWAP2 SWAP1 PUSH2 0x4D6 JUMP JUMPDEST PUSH2 0xED JUMP JUMPDEST STOP JUMPDEST PUSH2 0x87 PUSH1 0x4 DUP1 CALLDATASIZE SUB DUP2 ADD SWAP1 PUSH2 0x82 SWAP2 SWAP1 PUSH2 0x516 JUMP JUMPDEST PUSH2 0x1D3 JUMP JUMPDEST PUSH1 0x40 MLOAD PUSH2 0x94 SWAP2 SWAP1 PUSH2 0x552 JUMP JUMPDEST PUSH1 0x40 MLOAD DUP1 SWAP2 SUB SWAP1 RETURN JUMPDEST PUSH2 0xB7 PUSH1 0x4 DUP1 CALLDATASIZE SUB DUP2 ADD SWAP1 PUSH2 0xB2 SWAP2 SWAP1 PUSH2 0x4D6 JUMP JUMPDEST PUSH2 0x248 JUMP JUMPDEST STOP JUMPDEST PUSH2 0xD3 PUSH1 0x4 DUP1 CALLDATASIZE SUB DUP2 ADD SWAP1 PUSH2 0xCE SWAP2 SWAP1 PUSH2 0x516 JUMP JUMPDEST PUSH2 0x415 JUMP JUMPDEST PUSH1 0x40 MLOAD PUSH2 0xE4 SWAP6 SWAP5 SWAP4 SWAP3 SWAP2 SWAP1 PUSH2 0x597 JUMP JUMPDEST PUSH1 0x40 MLOAD DUP1 SWAP2 SUB SWAP1 RETURN JUMPDEST PUSH1 0x0 DUP1 PUSH1 0x0 DUP5 DUP2 MSTORE PUSH1 0x20 ADD SWAP1 DUP2 MSTORE PUSH1 0x20 ADD PUSH1 0x0 KECCAK256 SWAP1 POP DUP1 PUSH1 0x3 ADD PUSH1 0x0 SWAP1 SLOAD SWAP1 PUSH2 0x100 EXP SWAP1 DIV PUSH1 0xFF AND ISZERO PUSH2 0x14A JUMPI PUSH1 0x40 MLOAD PUSH30 0x249500000000000000000000000000000000000000000000000000000000 DUP2 MSTORE PUSH1 0x4 ADD PUSH1 0x40 MLOAD DUP1 SWAP2 SUB SWAP1 REVERT JUMPDEST DUP2 DUP2 PUSH1 0x0 ADD DUP2 SWAP1 SSTORE POP NUMBER DUP2 PUSH1 0x2 ADD DUP2 SWAP1 SSTORE POP PUSH1 0x1 DUP2 PUSH1 0x3 ADD PUSH1 0x0 PUSH2 0x100 EXP DUP2 SLOAD DUP2 PUSH1 0xFF MUL NOT AND SWAP1 DUP4 ISZERO ISZERO MUL OR SWAP1 SSTORE POP PUSH1 0x0 DUP2 PUSH1 0x3 ADD PUSH1 0x1 PUSH2 0x100 EXP DUP2 SLOAD DUP2 PUSH1 0xFF MUL NOT AND SWAP1 DUP4 ISZERO ISZERO MUL OR SWAP1 SSTORE POP DUP3 PUSH32 0x7EE26E0E713BA7F9BD111F62267C6CAC5984732E39B5A0350DDB50934DD18775 DUP4 PUSH1 0x40 MLOAD PUSH2 0x1C6 SWAP2 SWAP1 PUSH2 0x552 JUMP JUMPDEST PUSH1 0x40 MLOAD DUP1 SWAP2 SUB SWAP1 LOG2 POP POP POP JUMP JUMPDEST PUSH1 0x0 DUP1 PUSH1 0x0 DUP1 DUP5 DUP2 MSTORE PUSH1 0x20 ADD SWAP1 DUP2 MSTORE PUSH1 0x20 ADD PUSH1 0x0 KECCAK256 SWAP1 POP DUP1 PUSH1 0x3 ADD PUSH1 0x1 SWAP1 SLOAD SWAP1 PUSH2 0x100 EXP SWAP1 DIV PUSH1 0xFF AND PUSH2 0x23B JUMPI PUSH1 0x40 MLOAD PUSH32 0x8C379A000000000000000000000000000000000000000000000000000000000 DUP2 MSTORE PUSH1 0x4 ADD PUSH2 0x232 SWAP1 PUSH2 0x66D JUMP JUMPDEST PUSH1 0x40 MLOAD DUP1 SWAP2 SUB SWAP1 REVERT JUMPDEST DUP1 PUSH1 0x1 ADD SLOAD SWAP2 POP POP SWAP2 SWAP1 POP JUMP JUMPDEST PUSH1 0x0 DUP1 PUSH1 0x0 DUP5 DUP2 MSTORE PUSH1 0x20 ADD SWAP1 DUP2 MSTORE PUSH1 0x20 ADD PUSH1 0x0 KECCAK256 SWAP1 POP DUP1 PUSH1 0x3 ADD PUSH1 0x0 SWAP1 SLOAD SWAP1 PUSH2 0x100 EXP SWAP1 DIV PUSH1 0xFF AND PUSH2 0x2A6 JUMPI PUSH1 0x40 MLOAD PUSH32 0x5F960E8400000000000000000000000000000000000000000000000000000000 DUP2 MSTORE PUSH1 0x4 ADD PUSH1 0x40 MLOAD DUP1 SWAP2 SUB SWAP1 REVERT JUMPDEST PUSH1 0xA DUP2 PUSH1 0x2 ADD SLOAD PUSH2 0x2B7 SWAP2 SWAP1 PUSH2 0x6BC JUMP JUMPDEST NUMBER GT PUSH2 0x2EF JUMPI PUSH1 0x40 MLOAD PUSH32 0x7702A14100000000000000000000000000000000000000000000000000000000 DUP2 MSTORE PUSH1 0x4 ADD PUSH1 0x40 MLOAD DUP1 SWAP2 SUB SWAP1 REVERT JUMPDEST DUP1 PUSH1 0x3 ADD PUSH1 0x1 SWAP1 SLOAD SWAP1 PUSH2 0x100 EXP SWAP1 DIV PUSH1 0xFF AND ISZERO PUSH2 0x338 JUMPI PUSH1 0x40 MLOAD PUSH32 0xB3A77AF900000000000000000000000000000000000000000000000000000000 DUP2 MSTORE PUSH1 0x4 ADD PUSH1 0x40 MLOAD DUP1 SWAP2 SUB SWAP1 REVERT JUMPDEST PUSH1 0x0 DUP3 PUSH1 0x40 MLOAD PUSH1 0x20 ADD PUSH2 0x34B SWAP2 SWAP1 PUSH2 0x711 JUMP JUMPDEST PUSH1 0x40 MLOAD PUSH1 0x20 DUP2 DUP4 SUB SUB DUP2 MSTORE SWAP1 PUSH1 0x40 MSTORE DUP1 MLOAD SWAP1 PUSH1 0x20 ADD KECCAK256 SWAP1 POP DUP1 DUP3 PUSH1 0x0 ADD SLOAD EQ PUSH2 0x3B1 JUMPI DUP2 PUSH1 0x0 ADD SLOAD DUP2 PUSH1 0x40 MLOAD PUSH32 0x267BEE800000000000000000000000000000000000000000000000000000000 DUP2 MSTORE PUSH1 0x4 ADD PUSH2 0x3A8 SWAP3 SWAP2 SWAP1 PUSH2 0x72C JUMP JUMPDEST PUSH1 0x40 MLOAD DUP1 SWAP2 SUB SWAP1 REVERT JUMPDEST DUP3 DUP3 PUSH1 0x1 ADD DUP2 SWAP1 SSTORE POP PUSH1 0x1 DUP3 PUSH1 0x3 ADD PUSH1 0x1 PUSH2 0x100 EXP DUP2 SLOAD DUP2 PUSH1 0xFF MUL NOT AND SWAP1 DUP4 ISZERO ISZERO MUL OR SWAP1 SSTORE POP DUP4 PUSH32 0xFAA891F32720F5E38FA109BA0262096D6555306FD75A9F6F0914D9F47B75128C DUP5 PUSH1 0x40 MLOAD PUSH2 0x407 SWAP2 SWAP1 PUSH2 0x552 JUMP JUMPDEST PUSH1 0x40 MLOAD DUP1 SWAP2 SUB SWAP1 LOG2 POP POP POP POP JUMP JUMPDEST PUSH1 0x0 PUSH1 0x20 MSTORE DUP1 PUSH1 0x0 MSTORE PUSH1 0x40 PUSH1 0x0 KECCAK256 PUSH1 0x0 SWAP2 POP SWAP1 POP DUP1 PUSH1 0x0 ADD SLOAD SWAP1 DUP1 PUSH1 0x1 ADD SLOAD SWAP1 DUP1 PUSH1 0x2 ADD SLOAD SWAP1 DUP1 PUSH1 0x3 ADD PUSH1 0x0 SWAP1 SLOAD SWAP1 PUSH2 0x100 EXP SWAP1 DIV PUSH1 0xFF AND SWAP1 DUP1 PUSH1 0x3 ADD PUSH1 0x1 SWAP1 SLOAD SWAP1 PUSH2 0x100 EXP SWAP1 DIV PUSH1 0xFF AND SWAP1 POP DUP6 JUMP JUMPDEST PUSH1 0x0 DUP1 REVERT JUMPDEST PUSH1 0x0 DUP2 SWAP1 POP SWAP2 SWAP1 POP JUMP JUMPDEST PUSH2 0x47D DUP2 PUSH2 0x46A JUMP JUMPDEST DUP2 EQ PUSH2 0x488 JUMPI PUSH1 0x0 DUP1 REVERT JUMPDEST POP JUMP JUMPDEST PUSH1 0x0 DUP2 CALLDATALOAD SWAP1 POP PUSH2 0x49A DUP2 PUSH2 0x474 JUMP JUMPDEST SWAP3 SWAP2 POP POP JUMP JUMPDEST PUSH1 0x0 DUP2 SWAP1 POP SWAP2 SWAP1 POP JUMP JUMPDEST PUSH2 0x4B3 DUP2 PUSH2 0x4A0 JUMP JUMPDEST DUP2 EQ PUSH2 0x4BE JUMPI PUSH1 0x0 DUP1 REVERT JUMPDEST POP JUMP JUMPDEST PUSH1 0x0 DUP2 CALLDATALOAD SWAP1 POP PUSH2 0x4D0 DUP2 PUSH2 0x4AA JUMP JUMPDEST SWAP3 SWAP2 POP POP JUMP JUMPDEST PUSH1 0x0 DUP1 PUSH1 0x40 DUP4 DUP6 SUB SLT ISZERO PUSH2 0x4ED JUMPI PUSH2 0x4EC PUSH2 0x465 JUMP JUMPDEST JUMPDEST PUSH1 0x0 PUSH2 0x4FB DUP6 DUP3 DUP7 ADD PUSH2 0x48B JUMP JUMPDEST SWAP3 POP POP PUSH1 0x20 PUSH2 0x50C DUP6 DUP3 DUP7 ADD PUSH2 0x4C1 JUMP JUMPDEST SWAP2 POP POP SWAP3 POP SWAP3 SWAP1 POP JUMP JUMPDEST PUSH1 0x0 PUSH1 0x20 DUP3 DUP5 SUB SLT ISZERO PUSH2 0x52C JUMPI PUSH2 0x52B PUSH2 0x465 JUMP JUMPDEST JUMPDEST PUSH1 0x0 PUSH2 0x53A DUP5 DUP3 DUP6 ADD PUSH2 0x48B JUMP JUMPDEST SWAP2 POP POP SWAP3 SWAP2 POP POP JUMP JUMPDEST PUSH2 0x54C DUP2 PUSH2 0x4A0 JUMP JUMPDEST DUP3 MSTORE POP POP JUMP JUMPDEST PUSH1 0x0 PUSH1 0x20 DUP3 ADD SWAP1 POP PUSH2 0x567 PUSH1 0x0 DUP4 ADD DUP5 PUSH2 0x543 JUMP JUMPDEST SWAP3 SWAP2 POP POP JUMP JUMPDEST PUSH2 0x576 DUP2 PUSH2 0x46A JUMP JUMPDEST DUP3 MSTORE POP POP JUMP JUMPDEST PUSH1 0x0 DUP2 ISZERO ISZERO SWAP1 POP SWAP2 SWAP1 POP JUMP JUMPDEST PUSH2 0x591 DUP2 PUSH2 0x57C JUMP JUMPDEST DUP3 MSTORE POP POP JUMP JUMPDEST PUSH1 0x0 PUSH1 0xA0 DUP3 ADD SWAP1 POP PUSH2 0x5AC PUSH1 0x0 DUP4 ADD DUP9 PUSH2 0x543 JUMP JUMPDEST PUSH2 0x5B9 PUSH1 0x20 DUP4 ADD DUP8 PUSH2 0x543 JUMP JUMPDEST PUSH2 0x5C6 PUSH1 0x40 DUP4 ADD DUP7 PUSH2 0x56D JUMP JUMPDEST PUSH2 0x5D3 PUSH1 0x60 DUP4 ADD DUP6 PUSH2 0x588 JUMP JUMPDEST PUSH2 0x5E0 PUSH1 0x80 DUP4 ADD DUP5 PUSH2 0x588 JUMP JUMPDEST SWAP7 SWAP6 POP POP POP POP POP POP JUMP JUMPDEST PUSH1 0x0 DUP3 DUP3 MSTORE PUSH1 0x20 DUP3 ADD SWAP1 POP SWAP3 SWAP2 POP POP JUMP JUMPDEST PUSH32 0x53657175656E6365722072616E646F6D6E657373206E6F7420617661696C6162 PUSH1 0x0 DUP3 ADD MSTORE PUSH32 0x6C65000000000000000000000000000000000000000000000000000000000000 PUSH1 0x20 DUP3 ADD MSTORE POP JUMP JUMPDEST PUSH1 0x0 PUSH2 0x657 PUSH1 0x22 DUP4 PUSH2 0x5EA JUMP JUMPDEST SWAP2 POP PUSH2 0x662 DUP3 PUSH2 0x5FB JUMP JUMPDEST PUSH1 0x40 DUP3 ADD SWAP1 POP SWAP2 SWAP1 POP JUMP JUMPDEST PUSH1 0x0 PUSH1 0x20 DUP3 ADD SWAP1 POP DUP2 DUP2 SUB PUSH1 0x0 DUP4 ADD MSTORE PUSH2 0x686 DUP2 PUSH2 0x64A JUMP JUMPDEST SWAP1 POP SWAP2 SWAP1 POP JUMP JUMPDEST PUSH32 0x4E487B7100000000000000000000000000000000000000000000000000000000 PUSH1 0x0 MSTORE PUSH1 0x11 PUSH1 0x4 MSTORE PUSH1 0x24 PUSH1 0x0 REVERT JUMPDEST PUSH1 0x0 PUSH2 0x6C7 DUP3 PUSH2 0x46A JUMP JUMPDEST SWAP2 POP PUSH2 0x6D2 DUP4 PUSH2 0x46A JUMP JUMPDEST SWAP3 POP DUP3 DUP3 ADD SWAP1 POP DUP1 DUP3 GT ISZERO PUSH2 0x6EA JUMPI PUSH2 0x6E9 PUSH2 0x68D JUMP JUMPDEST JUMPDEST SWAP3 SWAP2 POP POP JUMP JUMPDEST PUSH1 0x0 DUP2 SWAP1 POP SWAP2 SWAP1 POP JUMP JUMPDEST PUSH2 0x70B PUSH2 0x706 DUP3 PUSH2 0x4A0 JUMP JUMPDEST PUSH2 0x6F0 JUMP JUMPDEST DUP3 MSTORE POP POP JUMP JUMPDEST PUSH1 0x0 PUSH2 0x71D DUP3 DUP5 PUSH2 0x6FA JUMP JUMPDEST PUSH1 0x20 DUP3 ADD SWAP2 POP DUP2 SWAP1 POP SWAP3 SWAP2 POP POP JUMP JUMPDEST PUSH1 0x0 PUSH1 0x40 DUP3 ADD SWAP1 POP PUSH2 0x741 PUSH1 0x0 DUP4 ADD DUP6 PUSH2 0x543 JUMP JUMPDEST PUSH2 0x74E PUSH1 0x20 DUP4 ADD DUP5 PUSH2 0x543 JUMP JUMPDEST SWAP4 SWAP3 POP POP POP JUMP INVALID LOG2 PUSH5 0x6970667358 0x22 SLT KECCAK256 CREATE2 PUSH26 0x7D04AA547703A933C2370017884CA4838D35AB2F261BFA9D5848 SWAP10 MOD BALANCE PUSH30 0x64736F6C6343000818003300000000000000000000000000000000000000 "},"methodIdentifiers":{"getSequencerRandomness(uint256)":"700dcc1a","postRandomnessCommitment(uint256,bytes32)":"47bdda48","revealSequencerRandomness(uint256,bytes32)":"90095e9d","sequencerEntries(uint256)":"d055bd04"}}}}}