{
  "_format": "hh-sol-artifact-1",
  "contractName": "SequencerRandomOracle",
  "sourceName": "contracts/SequencerRandomOracle.sol",
  "abi": [
    {
      "inputs": [
        {
          "internalType": "bytes32",
          "name": "expected",
          "type": "bytes32"
        },
        {
          "internalType": "bytes32",
          "name": "actual",
          "type": "bytes32"
        }
      ],
      "name": "InvalidRandomnessReveal",
      "type": "error"
    },
    {
      "inputs": [],
      "name": "PrecommitDelayNotPassed",
      "type": "error"
    },
    {
      "inputs": [],
      "name": "SequencerEntryAlreadyCommitted",
      "type": "error"
    },
    {
      "inputs": [],
      "name": "SequencerRandomnessAlreadyRevealed",
      "type": "error"
    },
    {
      "inputs": [],
      "name": "SequencerRandomnessNotCommitted",
      "type": "error"
    },
    {
      "anonymous": false,
      "inputs": [
        {
          "indexed": true,
          "internalType": "uint256",
          "name": "T",
          "type": "uint256"
        },
        {
          "indexed": false,
          "internalType": "bytes32",
          "name": "randomnessHash",
          "type": "bytes32"
        }
      ],
      "name": "SequencerRandomnessPosted",
      "type": "event"
    },
    {
      "anonymous": false,
      "inputs": [
        {
          "indexed": true,
          "internalType": "uint256",
          "name": "T",
          "type": "uint256"
        },
        {
          "indexed": false,
          "internalType": "bytes32",
          "name": "randomness",
          "type": "bytes32"
        }
      ],
      "name": "SequencerRandomnessRevealed",
      "type": "event"
    },
    {
      "inputs": [
        {
          "internalType": "uint256",
          "name": "T",
          "type": "uint256"
        }
      ],
      "name": "getSequencerRandomness",
      "outputs": [
        {
          "internalType": "bytes32",
          "name": "",
          "type": "bytes32"
        }
      ],
      "stateMutability": "view",
      "type": "function"
    },
    {
      "inputs": [
        {
          "internalType": "uint256",
          "name": "T",
          "type": "uint256"
        },
        {
          "internalType": "bytes32",
          "name": "randomnessHash",
          "type": "bytes32"
        }
      ],
      "name": "postRandomnessCommitment",
      "outputs": [],
      "stateMutability": "nonpayable",
      "type": "function"
    },
    {
      "inputs": [
        {
          "internalType": "uint256",
          "name": "T",
          "type": "uint256"
        },
        {
          "internalType": "bytes32",
          "name": "randomness",
          "type": "bytes32"
        }
      ],
      "name": "revealSequencerRandomness",
      "outputs": [],
      "stateMutability": "nonpayable",
      "type": "function"
    },
    {
      "inputs": [
        {
          "internalType": "uint256",
          "name": "",
          "type": "uint256"
        }
      ],
      "name": "sequencerEntries",
      "outputs": [
        {
          "internalType": "bytes32",
          "name": "randomnessHash",
          "type": "bytes32"
        },
        {
          "internalType": "bytes32",
          "name": "randomness",
          "type": "bytes32"
        },
        {
          "internalType": "uint256",
          "name": "blockNumber",
          "type": "uint256"
        },
        {
          "internalType": "bool",
          "name": "committed",
          "type": "bool"
        },
        {
          "internalType": "bool",
          "name": "revealed",
          "type": "bool"
        }
      ],
      "stateMutability": "view",
      "type": "function"
    }
  ],
  "bytecode": "0x608060405234801561001057600080fd5b5061078b806100206000396000f3fe608060405234801561001057600080fd5b506004361061004c5760003560e01c806347bdda4814610051578063700dcc1a1461006d57806390095e9d1461009d578063d055bd04146100b9575b600080fd5b61006b600480360381019061006691906104d6565b6100ed565b005b61008760048036038101906100829190610516565b6101d3565b6040516100949190610552565b60405180910390f35b6100b760048036038101906100b291906104d6565b610248565b005b6100d360048036038101906100ce9190610516565b610415565b6040516100e4959493929190610597565b60405180910390f35b600080600084815260200190815260200160002090508060030160009054906101000a900460ff161561014a576040517d249500000000000000000000000000000000000000000000000000000000815260040160405180910390fd5b81816000018190555043816002018190555060018160030160006101000a81548160ff02191690831515021790555060008160030160016101000a81548160ff021916908315150217905550827f7ee26e0e713ba7f9bd111f62267c6cac5984732e39b5a0350ddb50934dd18775836040516101c69190610552565b60405180910390a2505050565b60008060008084815260200190815260200160002090508060030160019054906101000a900460ff1661023b576040517f08c379a00000000000000000000000000000000000000000000000000000000081526004016102329061066d565b60405180910390fd5b8060010154915050919050565b600080600084815260200190815260200160002090508060030160009054906101000a900460ff166102a6576040517f5f960e8400000000000000000000000000000000000000000000000000000000815260040160405180910390fd5b600a81600201546102b791906106bc565b43116102ef576040517f7702a14100000000000000000000000000000000000000000000000000000000815260040160405180910390fd5b8060030160019054906101000a900460ff1615610338576040517fb3a77af900000000000000000000000000000000000000000000000000000000815260040160405180910390fd5b60008260405160200161034b9190610711565b604051602081830303815290604052805190602001209050808260000154146103b1578160000154816040517f0267bee80000000000000000000000000000000000000000000000000000000081526004016103a892919061072c565b60405180910390fd5b82826001018190555060018260030160016101000a81548160ff021916908315150217905550837ffaa891f32720f5e38fa109ba0262096d6555306fd75a9f6f0914d9f47b75128c846040516104079190610552565b60405180910390a250505050565b60006020528060005260406000206000915090508060000154908060010154908060020154908060030160009054906101000a900460ff16908060030160019054906101000a900460ff16905085565b600080fd5b6000819050919050565b61047d8161046a565b811461048857600080fd5b50565b60008135905061049a81610474565b92915050565b6000819050919050565b6104b3816104a0565b81146104be57600080fd5b50565b6000813590506104d0816104aa565b92915050565b600080604083850312156104ed576104ec610465565b5b60006104fb8582860161048b565b925050602061050c858286016104c1565b9150509250929050565b60006020828403121561052c5761052b610465565b5b600061053a8482850161048b565b91505092915050565b61054c816104a0565b82525050565b60006020820190506105676000830184610543565b92915050565b6105768161046a565b82525050565b60008115159050919050565b6105918161057c565b82525050565b600060a0820190506105ac6000830188610543565b6105b96020830187610543565b6105c6604083018661056d565b6105d36060830185610588565b6105e06080830184610588565b9695505050505050565b600082825260208201905092915050565b7f53657175656e6365722072616e646f6d6e657373206e6f7420617661696c616260008201527f6c65000000000000000000000000000000000000000000000000000000000000602082015250565b60006106576022836105ea565b9150610662826105fb565b604082019050919050565b600060208201905081810360008301526106868161064a565b9050919050565b7f4e487b7100000000000000000000000000000000000000000000000000000000600052601160045260246000fd5b60006106c78261046a565b91506106d28361046a565b92508282019050808211156106ea576106e961068d565b5b92915050565b6000819050919050565b61070b610706826104a0565b6106f0565b82525050565b600061071d82846106fa565b60208201915081905092915050565b60006040820190506107416000830185610543565b61074e6020830184610543565b939250505056fea2646970667358221220f5797d04aa547703a933c2370017884ca4838d35ab2f261bfa9d58489906317d64736f6c63430008180033",
  "linkReferences": {},
  "deployedLinkReferences": {}
}